{
  "contractName": "Schedule",
  "abi": [
    {
      "constant": true,
      "inputs": [],
      "name": "owner",
      "outputs": [
        {
          "name": "",
          "type": "address"
        }
      ],
      "payable": false,
      "stateMutability": "view",
      "type": "function"
    },
    {
      "inputs": [],
      "payable": false,
      "stateMutability": "nonpayable",
      "type": "constructor"
    },
    {
      "constant": false,
      "inputs": [
        {
          "name": "_schDetailHash",
          "type": "string"
        }
      ],
      "name": "setScheduleDetail",
      "outputs": [],
      "payable": false,
      "stateMutability": "nonpayable",
      "type": "function"
    },
    {
      "constant": true,
      "inputs": [],
      "name": "getScheduleDetail",
      "outputs": [
        {
          "name": "",
          "type": "string"
        }
      ],
      "payable": false,
      "stateMutability": "view",
      "type": "function"
    },
    {
      "constant": false,
      "inputs": [
        {
          "name": "_ScheduleNo",
          "type": "string"
        },
        {
          "name": "_scheduledRouteHash",
          "type": "string"
        }
      ],
      "name": "setScheduledRoute",
      "outputs": [],
      "payable": false,
      "stateMutability": "nonpayable",
      "type": "function"
    },
    {
      "constant": true,
      "inputs": [
        {
          "name": "_ScheduleNo",
          "type": "string"
        }
      ],
      "name": "getScheduledRoute",
      "outputs": [
        {
          "name": "",
          "type": "string"
        }
      ],
      "payable": false,
      "stateMutability": "view",
      "type": "function"
    },
    {
      "constant": false,
      "inputs": [
        {
          "name": "_ScheduleNo",
          "type": "string"
        },
        {
          "name": "_DrivenRouteRouteHash",
          "type": "string"
        }
      ],
      "name": "setDrivenRoute",
      "outputs": [],
      "payable": false,
      "stateMutability": "nonpayable",
      "type": "function"
    },
    {
      "constant": true,
      "inputs": [
        {
          "name": "_ScheduleNo",
          "type": "string"
        }
      ],
      "name": "getDrivenRoute",
      "outputs": [
        {
          "name": "",
          "type": "string"
        }
      ],
      "payable": false,
      "stateMutability": "view",
      "type": "function"
    },
    {
      "constant": false,
      "inputs": [
        {
          "name": "_ScheduleNo",
          "type": "string"
        },
        {
          "name": "_preListHash",
          "type": "string"
        }
      ],
      "name": "setPreDeliveryList",
      "outputs": [],
      "payable": false,
      "stateMutability": "nonpayable",
      "type": "function"
    },
    {
      "constant": true,
      "inputs": [
        {
          "name": "_ScheduleNo",
          "type": "string"
        }
      ],
      "name": "getPreDeliveryList",
      "outputs": [
        {
          "name": "",
          "type": "string"
        }
      ],
      "payable": false,
      "stateMutability": "view",
      "type": "function"
    },
    {
      "constant": false,
      "inputs": [
        {
          "name": "_ScheduleNo",
          "type": "string"
        },
        {
          "name": "_postListHash",
          "type": "string"
        }
      ],
      "name": "setPostDeliveryList",
      "outputs": [],
      "payable": false,
      "stateMutability": "nonpayable",
      "type": "function"
    },
    {
      "constant": true,
      "inputs": [
        {
          "name": "_ScheduleNo",
          "type": "string"
        }
      ],
      "name": "getPostDeliveryList",
      "outputs": [
        {
          "name": "",
          "type": "string"
        }
      ],
      "payable": false,
      "stateMutability": "view",
      "type": "function"
    }
  ],
  "bytecode": "0x608060405234801561001057600080fd5b50336000806101000a81548173ffffffffffffffffffffffffffffffffffffffff021916908373ffffffffffffffffffffffffffffffffffffffff1602179055506114d9806100606000396000f3fe6080604052600436106100af576000357c0100000000000000000000000000000000000000000000000000000000900463ffffffff16806307e620fe146100b4578063175cc914146102135780631ec2b4671461035457806358ac2c8d146104955780638021361c146105f45780638da5cb5b1461075357806393044abd146107aa578063a35ae122146108eb578063cf21438914610a4a578063ebecf03314610ada578063ff948f0d14610c1b575b600080fd5b3480156100c057600080fd5b50610211600480360360408110156100d757600080fd5b81019080803590602001906401000000008111156100f457600080fd5b82018360208201111561010657600080fd5b8035906020019184600183028401116401000000008311171561012857600080fd5b91908080601f016020809104026020016040519081016040528093929190818152602001838380828437600081840152601f19601f8201169050808301925050505050505091929192908035906020019064010000000081111561018b57600080fd5b82018360208201111561019d57600080fd5b803590602001918460018302840111640100000000831117156101bf57600080fd5b91908080601f016020809104026020016040519081016040528093929190818152602001838380828437600081840152601f19601f820116905080830192505050505050509192919290505050610ce3565b005b34801561021f57600080fd5b506102d96004803603602081101561023657600080fd5b810190808035906020019064010000000081111561025357600080fd5b82018360208201111561026557600080fd5b8035906020019184600183028401116401000000008311171561028757600080fd5b91908080601f016020809104026020016040519081016040528093929190818152602001838380828437600081840152601f19601f820116905080830192505050505050509192919290505050610d67565b6040518080602001828103825283818151815260200191508051906020019080838360005b838110156103195780820151818401526020810190506102fe565b50505050905090810190601f1680156103465780820380516001836020036101000a031916815260200191505b509250505060405180910390f35b34801561036057600080fd5b5061041a6004803603602081101561037757600080fd5b810190808035906020019064010000000081111561039457600080fd5b8201836020820111156103a657600080fd5b803590602001918460018302840111640100000000831117156103c857600080fd5b91908080601f016020809104026020016040519081016040528093929190818152602001838380828437600081840152601f19601f820116905080830192505050505050509192919290505050610e74565b6040518080602001828103825283818151815260200191508051906020019080838360005b8381101561045a57808201518184015260208101905061043f565b50505050905090810190601f1680156104875780820380516001836020036101000a031916815260200191505b509250505060405180910390f35b3480156104a157600080fd5b506105f2600480360360408110156104b857600080fd5b81019080803590602001906401000000008111156104d557600080fd5b8201836020820111156104e757600080fd5b8035906020019184600183028401116401000000008311171561050957600080fd5b91908080601f016020809104026020016040519081016040528093929190818152602001838380828437600081840152601f19601f8201169050808301925050505050505091929192908035906020019064010000000081111561056c57600080fd5b82018360208201111561057e57600080fd5b803590602001918460018302840111640100000000831117156105a057600080fd5b91908080601f016020809104026020016040519081016040528093929190818152602001838380828437600081840152601f19601f820116905080830192505050505050509192919290505050610f81565b005b34801561060057600080fd5b506107516004803603604081101561061757600080fd5b810190808035906020019064010000000081111561063457600080fd5b82018360208201111561064657600080fd5b8035906020019184600183028401116401000000008311171561066857600080fd5b91908080601f016020809104026020016040519081016040528093929190818152602001838380828437600081840152601f19601f820116905080830192505050505050509192919290803590602001906401000000008111156106cb57600080fd5b8201836020820111156106dd57600080fd5b803590602001918460018302840111640100000000831117156106ff57600080fd5b91908080601f016020809104026020016040519081016040528093929190818152602001838380828437600081840152601f19601f820116905080830192505050505050509192919290505050611005565b005b34801561075f57600080fd5b50610768611089565b604051808273ffffffffffffffffffffffffffffffffffffffff1673ffffffffffffffffffffffffffffffffffffffff16815260200191505060405180910390f35b3480156107b657600080fd5b50610870600480360360208110156107cd57600080fd5b81019080803590602001906401000000008111156107ea57600080fd5b8201836020820111156107fc57600080fd5b8035906020019184600183028401116401000000008311171561081e57600080fd5b91908080601f016020809104026020016040519081016040528093929190818152602001838380828437600081840152601f19601f8201169050808301925050505050505091929192905050506110ae565b6040518080602001828103825283818151815260200191508051906020019080838360005b838110156108b0578082015181840152602081019050610895565b50505050905090810190601f1680156108dd5780820380516001836020036101000a031916815260200191505b509250505060405180910390f35b3480156108f757600080fd5b50610a486004803603604081101561090e57600080fd5b810190808035906020019064010000000081111561092b57600080fd5b82018360208201111561093d57600080fd5b8035906020019184600183028401116401000000008311171561095f57600080fd5b91908080601f016020809104026020016040519081016040528093929190818152602001838380828437600081840152601f19601f820116905080830192505050505050509192919290803590602001906401000000008111156109c257600080fd5b8201836020820111156109d457600080fd5b803590602001918460018302840111640100000000831117156109f657600080fd5b91908080601f016020809104026020016040519081016040528093929190818152602001838380828437600081840152601f19601f8201169050808301925050505050505091929192905050506111bb565b005b348015610a5657600080fd5b50610a5f61123f565b6040518080602001828103825283818151815260200191508051906020019080838360005b83811015610a9f578082015181840152602081019050610a84565b50505050905090810190601f168015610acc5780820380516001836020036101000a031916815260200191505b509250505060405180910390f35b348015610ae657600080fd5b50610ba060048036036020811015610afd57600080fd5b8101908080359060200190640100000000811115610b1a57600080fd5b820183602082011115610b2c57600080fd5b80359060200191846001830284011164010000000083111715610b4e57600080fd5b91908080601f016020809104026020016040519081016040528093929190818152602001838380828437600081840152601f19601f8201169050808301925050505050505091929192905050506112e1565b6040518080602001828103825283818151815260200191508051906020019080838360005b83811015610be0578082015181840152602081019050610bc5565b50505050905090810190601f168015610c0d5780820380516001836020036101000a031916815260200191505b509250505060405180910390f35b348015610c2757600080fd5b50610ce160048036036020811015610c3e57600080fd5b8101908080359060200190640100000000811115610c5b57600080fd5b820183602082011115610c6d57600080fd5b80359060200191846001830284011164010000000083111715610c8f57600080fd5b91908080601f016020809104026020016040519081016040528093929190818152602001838380828437600081840152601f19601f8201169050808301925050505050505091929192905050506113ee565b005b806004836040518082805190602001908083835b602083101515610d1c5780518252602082019150602081019050602083039250610cf7565b6001836020036101000a03801982511681845116808217855250505050505090500191505090815260200160405180910390209080519060200190610d62929190611408565b505050565b60606004826040518082805190602001908083835b602083101515610da15780518252602082019150602081019050602083039250610d7c565b6001836020036101000a03801982511681845116808217855250505050505090500191505090815260200160405180910390208054600181600116156101000203166002900480601f016020809104026020016040519081016040528092919081815260200182805460018160011615610100020316600290048015610e685780601f10610e3d57610100808354040283529160200191610e68565b820191906000526020600020905b815481529060010190602001808311610e4b57829003601f168201915b50505050509050919050565b60606005826040518082805190602001908083835b602083101515610eae5780518252602082019150602081019050602083039250610e89565b6001836020036101000a03801982511681845116808217855250505050505090500191505090815260200160405180910390208054600181600116156101000203166002900480601f016020809104026020016040519081016040528092919081815260200182805460018160011615610100020316600290048015610f755780601f10610f4a57610100808354040283529160200191610f75565b820191906000526020600020905b815481529060010190602001808311610f5857829003601f168201915b50505050509050919050565b806005836040518082805190602001908083835b602083101515610fba5780518252602082019150602081019050602083039250610f95565b6001836020036101000a03801982511681845116808217855250505050505090500191505090815260200160405180910390209080519060200190611000929190611408565b505050565b806003836040518082805190602001908083835b60208310151561103e5780518252602082019150602081019050602083039250611019565b6001836020036101000a03801982511681845116808217855250505050505090500191505090815260200160405180910390209080519060200190611084929190611408565b505050565b6000809054906101000a900473ffffffffffffffffffffffffffffffffffffffff1681565b60606006826040518082805190602001908083835b6020831015156110e857805182526020820191506020810190506020830392506110c3565b6001836020036101000a03801982511681845116808217855250505050505090500191505090815260200160405180910390208054600181600116156101000203166002900480601f0160208091040260200160405190810160405280929190818152602001828054600181600116156101000203166002900480156111af5780601f10611184576101008083540402835291602001916111af565b820191906000526020600020905b81548152906001019060200180831161119257829003601f168201915b50505050509050919050565b806006836040518082805190602001908083835b6020831015156111f457805182526020820191506020810190506020830392506111cf565b6001836020036101000a0380198251168184511680821785525050505050509050019150509081526020016040518091039020908051906020019061123a929190611408565b505050565b606060028054600181600116156101000203166002900480601f0160208091040260200160405190810160405280929190818152602001828054600181600116156101000203166002900480156112d75780601f106112ac576101008083540402835291602001916112d7565b820191906000526020600020905b8154815290600101906020018083116112ba57829003601f168201915b5050505050905090565b60606003826040518082805190602001908083835b60208310151561131b57805182526020820191506020810190506020830392506112f6565b6001836020036101000a03801982511681845116808217855250505050505090500191505090815260200160405180910390208054600181600116156101000203166002900480601f0160208091040260200160405190810160405280929190818152602001828054600181600116156101000203166002900480156113e25780601f106113b7576101008083540402835291602001916113e2565b820191906000526020600020905b8154815290600101906020018083116113c557829003601f168201915b50505050509050919050565b8060029080519060200190611404929190611408565b5050565b828054600181600116156101000203166002900490600052602060002090601f016020900481019282601f1061144957805160ff1916838001178555611477565b82800160010185558215611477579182015b8281111561147657825182559160200191906001019061145b565b5b5090506114849190611488565b5090565b6114aa91905b808211156114a657600081600090555060010161148e565b5090565b9056fea165627a7a7230582020aafb961bb3daefa9b2256c9c25b6473250553cd6d9a94eb7148355af0cacbd0029",
  "source": "pragma solidity >=0.4.21 <0.6.0;\n\ncontract Drivers {\n    address public owner;\n    string DriverID;\n    mapping(string => string) DriverInfo;\n\n    constructor() public {\n        owner = msg.sender;\n    }\n\n    function setDriverInfo(string memory _DriverID, string memory _ipfsHash) public {\n        DriverInfo[_DriverID] = _ipfsHash;\n    }\n\n    function getDriverInfo(string memory _DriverID) public view returns (string memory)  {\n        return DriverInfo[_DriverID];\n    }\n}\n\ncontract Vehicles {\n    address public owner;\n    string VehicleID;\n    mapping(string => string) VehicleInfo;\n\n    constructor() public {\n        owner = msg.sender;\n    }\n\n    function setVehicleInfo(string memory _VehicleID, string memory _vehicleHash) public {\n        VehicleInfo[_VehicleID] = _vehicleHash;\n    }\n\n    function getVehicleInfo(string memory _VehicleID) public view returns (string memory)  {\n        return VehicleInfo[_VehicleID];\n    }\n}\n\ncontract Schedule {\n    address public owner;\n    string ScheduleNo;\n    string ScheduleDetail;\n    mapping(string => string) PreDeliveryList;\n    mapping(string => string) PostDeliveryList;\n    mapping(string => string) ScheduledRoute;\n    mapping(string => string) DrivenRoute;\n\n    constructor() public {\n        owner = msg.sender;\n    }\n\n    function setScheduleDetail(string memory _schDetailHash) public {\n        ScheduleDetail = _schDetailHash;\n    }\n\n    function getScheduleDetail() public view returns (string memory)  {\n        return ScheduleDetail;\n    }\n\n    function setScheduledRoute(string memory _ScheduleNo, string memory _scheduledRouteHash) public {\n        ScheduledRoute[_ScheduleNo] = _scheduledRouteHash;\n    }\n\n    function getScheduledRoute(string memory _ScheduleNo) public view returns (string memory)  {\n        return ScheduledRoute[_ScheduleNo];\n    }\n\n    function setDrivenRoute(string memory _ScheduleNo, string memory _DrivenRouteRouteHash) public {\n        DrivenRoute[_ScheduleNo] = _DrivenRouteRouteHash;\n    }\n\n    function getDrivenRoute(string memory _ScheduleNo) public view returns (string memory)  {\n        return DrivenRoute[_ScheduleNo];\n    }\n\n    function setPreDeliveryList(string memory _ScheduleNo, string memory _preListHash) public {\n        PreDeliveryList[_ScheduleNo] = _preListHash;\n    }\n\n    function getPreDeliveryList(string memory _ScheduleNo) public view returns (string memory)  {\n        return PreDeliveryList[_ScheduleNo];\n    }\n\n    function setPostDeliveryList(string memory _ScheduleNo, string memory _postListHash) public {\n        PostDeliveryList[_ScheduleNo] = _postListHash;\n    }\n\n    function getPostDeliveryList(string memory _ScheduleNo) public view returns (string memory)  {\n        return PostDeliveryList[_ScheduleNo];\n    }\n}",
  "sourcePath": "/home/wayne/Desktop/blockchain/Semester2/SmartContractEs/TruckManagement/contracts/vehicleManage.sol",
  "compiler": {
    "name": "solc",
    "version": "0.5.0+commit.1d4f565a.Emscripten.clang"
  },
  "schemaVersion": "3.0.1",
  "updatedAt": "2019-01-21T01:51:10.215Z",
  "devdoc": {
    "methods": {}
  },
  "userdoc": {
    "methods": {}
  }
}