{
  "contractName": "Vehicles",
  "abi": [
    {
      "constant": true,
      "inputs": [],
      "name": "owner",
      "outputs": [
        {
          "name": "",
          "type": "address"
        }
      ],
      "payable": false,
      "stateMutability": "view",
      "type": "function"
    },
    {
      "inputs": [],
      "payable": false,
      "stateMutability": "nonpayable",
      "type": "constructor"
    },
    {
      "constant": false,
      "inputs": [
        {
          "name": "_VehicleID",
          "type": "string"
        },
        {
          "name": "_vehicleHash",
          "type": "string"
        }
      ],
      "name": "setVehicleInfo",
      "outputs": [],
      "payable": false,
      "stateMutability": "nonpayable",
      "type": "function"
    },
    {
      "constant": true,
      "inputs": [
        {
          "name": "_VehicleID",
          "type": "string"
        }
      ],
      "name": "getVehicleInfo",
      "outputs": [
        {
          "name": "",
          "type": "string"
        }
      ],
      "payable": false,
      "stateMutability": "view",
      "type": "function"
    }
  ],
  "bytecode": "0x608060405234801561001057600080fd5b50336000806101000a81548173ffffffffffffffffffffffffffffffffffffffff021916908373ffffffffffffffffffffffffffffffffffffffff1602179055506105da806100606000396000f3fe608060405260043610610057576000357c0100000000000000000000000000000000000000000000000000000000900463ffffffff1680638da5cb5b1461005c578063919a85bd146100b3578063ab32c50814610212575b600080fd5b34801561006857600080fd5b50610071610353565b604051808273ffffffffffffffffffffffffffffffffffffffff1673ffffffffffffffffffffffffffffffffffffffff16815260200191505060405180910390f35b3480156100bf57600080fd5b50610210600480360360408110156100d657600080fd5b81019080803590602001906401000000008111156100f357600080fd5b82018360208201111561010557600080fd5b8035906020019184600183028401116401000000008311171561012757600080fd5b91908080601f016020809104026020016040519081016040528093929190818152602001838380828437600081840152601f19601f8201169050808301925050505050505091929192908035906020019064010000000081111561018a57600080fd5b82018360208201111561019c57600080fd5b803590602001918460018302840111640100000000831117156101be57600080fd5b91908080601f016020809104026020016040519081016040528093929190818152602001838380828437600081840152601f19601f820116905080830192505050505050509192919290505050610378565b005b34801561021e57600080fd5b506102d86004803603602081101561023557600080fd5b810190808035906020019064010000000081111561025257600080fd5b82018360208201111561026457600080fd5b8035906020019184600183028401116401000000008311171561028657600080fd5b91908080601f016020809104026020016040519081016040528093929190818152602001838380828437600081840152601f19601f8201169050808301925050505050505091929192905050506103fc565b6040518080602001828103825283818151815260200191508051906020019080838360005b838110156103185780820151818401526020810190506102fd565b50505050905090810190601f1680156103455780820380516001836020036101000a031916815260200191505b509250505060405180910390f35b6000809054906101000a900473ffffffffffffffffffffffffffffffffffffffff1681565b806002836040518082805190602001908083835b6020831015156103b1578051825260208201915060208101905060208303925061038c565b6001836020036101000a038019825116818451168082178552505050505050905001915050908152602001604051809103902090805190602001906103f7929190610509565b505050565b60606002826040518082805190602001908083835b6020831015156104365780518252602082019150602081019050602083039250610411565b6001836020036101000a03801982511681845116808217855250505050505090500191505090815260200160405180910390208054600181600116156101000203166002900480601f0160208091040260200160405190810160405280929190818152602001828054600181600116156101000203166002900480156104fd5780601f106104d2576101008083540402835291602001916104fd565b820191906000526020600020905b8154815290600101906020018083116104e057829003601f168201915b50505050509050919050565b828054600181600116156101000203166002900490600052602060002090601f016020900481019282601f1061054a57805160ff1916838001178555610578565b82800160010185558215610578579182015b8281111561057757825182559160200191906001019061055c565b5b5090506105859190610589565b5090565b6105ab91905b808211156105a757600081600090555060010161058f565b5090565b9056fea165627a7a72305820a1a528b8e83cadb7575998cc48cafdb492a5438dc6b1e1e354003c88fc733b940029",
  "source": "pragma solidity >=0.4.21 <0.6.0;\n\ncontract Drivers {\n    address public owner;\n    string DriverID;\n    mapping(string => string) DriverInfo;\n\n    constructor() public {\n        owner = msg.sender;\n    }\n\n    function setDriverInfo(string memory _DriverID, string memory _ipfsHash) public {\n        DriverInfo[_DriverID] = _ipfsHash;\n    }\n\n    function getDriverInfo(string memory _DriverID) public view returns (string memory)  {\n        return DriverInfo[_DriverID];\n    }\n}\n\ncontract Vehicles {\n    address public owner;\n    string VehicleID;\n    mapping(string => string) VehicleInfo;\n\n    constructor() public {\n        owner = msg.sender;\n    }\n\n    function setVehicleInfo(string memory _VehicleID, string memory _vehicleHash) public {\n        VehicleInfo[_VehicleID] = _vehicleHash;\n    }\n\n    function getVehicleInfo(string memory _VehicleID) public view returns (string memory)  {\n        return VehicleInfo[_VehicleID];\n    }\n}\n\ncontract Schedule {\n    address public owner;\n    string ScheduleNo;\n    string ScheduleDetail;\n    mapping(string => string) PreDeliveryList;\n    mapping(string => string) PostDeliveryList;\n    mapping(string => string) ScheduledRoute;\n    mapping(string => string) DrivenRoute;\n\n    constructor() public {\n        owner = msg.sender;\n    }\n\n    function setScheduleDetail(string memory _schDetailHash) public {\n        ScheduleDetail = _schDetailHash;\n    }\n\n    function getScheduleDetail() public view returns (string memory)  {\n        return ScheduleDetail;\n    }\n\n    function setScheduledRoute(string memory _ScheduleNo, string memory _scheduledRouteHash) public {\n        ScheduledRoute[_ScheduleNo] = _scheduledRouteHash;\n    }\n\n    function getScheduledRoute(string memory _ScheduleNo) public view returns (string memory)  {\n        return ScheduledRoute[_ScheduleNo];\n    }\n\n    function setDrivenRoute(string memory _ScheduleNo, string memory _DrivenRouteRouteHash) public {\n        DrivenRoute[_ScheduleNo] = _DrivenRouteRouteHash;\n    }\n\n    function getDrivenRoute(string memory _ScheduleNo) public view returns (string memory)  {\n        return DrivenRoute[_ScheduleNo];\n    }\n\n    function setPreDeliveryList(string memory _ScheduleNo, string memory _preListHash) public {\n        PreDeliveryList[_ScheduleNo] = _preListHash;\n    }\n\n    function getPreDeliveryList(string memory _ScheduleNo) public view returns (string memory)  {\n        return PreDeliveryList[_ScheduleNo];\n    }\n\n    function setPostDeliveryList(string memory _ScheduleNo, string memory _postListHash) public {\n        PostDeliveryList[_ScheduleNo] = _postListHash;\n    }\n\n    function getPostDeliveryList(string memory _ScheduleNo) public view returns (string memory)  {\n        return PostDeliveryList[_ScheduleNo];\n    }\n}",
  "sourcePath": "/home/wayne/Desktop/blockchain/Semester2/SmartContractEs/TruckManagement/contracts/vehicleManage.sol",
  "compiler": {
    "name": "solc",
    "version": "0.5.0+commit.1d4f565a.Emscripten.clang"
  },
  "schemaVersion": "3.0.1",
  "updatedAt": "2019-01-21T01:51:10.217Z",
  "devdoc": {
    "methods": {}
  },
  "userdoc": {
    "methods": {}
  }
}